{
  "contractName": "ERC721",
  "abi": [
    {
      "anonymous": false,
      "inputs": [
        {
          "indexed": true,
          "internalType": "address",
          "name": "from",
          "type": "address"
        },
        {
          "indexed": true,
          "internalType": "address",
          "name": "to",
          "type": "address"
        },
        {
          "indexed": true,
          "internalType": "uint256",
          "name": "tokenId",
          "type": "uint256"
        }
      ],
      "name": "Transfer",
      "type": "event"
    },
    {
      "inputs": [
        {
          "internalType": "address",
          "name": "_owner",
          "type": "address"
        }
      ],
      "name": "balanceOf",
      "outputs": [
        {
          "internalType": "uint256",
          "name": "",
          "type": "uint256"
        }
      ],
      "stateMutability": "view",
      "type": "function"
    },
    {
      "inputs": [
        {
          "internalType": "uint256",
          "name": "_tokenId",
          "type": "uint256"
        }
      ],
      "name": "ownerOf",
      "outputs": [
        {
          "internalType": "address",
          "name": "",
          "type": "address"
        }
      ],
      "stateMutability": "view",
      "type": "function"
    },
    {
      "inputs": [
        {
          "internalType": "address",
          "name": "_from",
          "type": "address"
        },
        {
          "internalType": "address",
          "name": "_to",
          "type": "address"
        },
        {
          "internalType": "uint256",
          "name": "_tokenId",
          "type": "uint256"
        }
      ],
      "name": "transferFrom",
      "outputs": [],
      "stateMutability": "nonpayable",
      "type": "function"
    }
  ],
  "bytecode": "0x608060405234801561001057600080fd5b506108a9806100206000396000f3fe608060405234801561001057600080fd5b50600436106100415760003560e01c806323b872dd146100465780636352211e1461006257806370a0823114610092575b600080fd5b610060600480360381019061005b9190610514565b6100c2565b005b61007c60048036038101906100779190610567565b6100d2565b60405161008991906105a3565b60405180910390f35b6100ac60048036038101906100a791906105be565b610182565b6040516100b991906105fa565b60405180910390f35b6100cd838383610239565b505050565b60008060008084815260200190815260200160002060009054906101000a900473ffffffffffffffffffffffffffffffffffffffff169050600073ffffffffffffffffffffffffffffffffffffffff168173ffffffffffffffffffffffffffffffffffffffff1603610179576040517f08c379a000000000000000000000000000000000000000000000000000000000815260040161017090610698565b60405180910390fd5b80915050919050565b60008073ffffffffffffffffffffffffffffffffffffffff168273ffffffffffffffffffffffffffffffffffffffff16036101f2576040517f08c379a00000000000000000000000000000000000000000000000000000000081526004016101e990610698565b60405180910390fd5b600160008373ffffffffffffffffffffffffffffffffffffffff1673ffffffffffffffffffffffffffffffffffffffff168152602001908152602001600020549050919050565b610242816100d2565b73ffffffffffffffffffffffffffffffffffffffff168373ffffffffffffffffffffffffffffffffffffffff16146102af576040517f08c379a00000000000000000000000000000000000000000000000000000000081526004016102a69061072a565b60405180910390fd5b600073ffffffffffffffffffffffffffffffffffffffff168273ffffffffffffffffffffffffffffffffffffffff160361031e576040517f08c379a0000000000000000000000000000000000000000000000000000000008152600401610315906107bc565b60405180910390fd5b8160008083815260200190815260200160002060006101000a81548173ffffffffffffffffffffffffffffffffffffffff021916908373ffffffffffffffffffffffffffffffffffffffff16021790555060018060008573ffffffffffffffffffffffffffffffffffffffff1673ffffffffffffffffffffffffffffffffffffffff16815260200190815260200160002060008282546103be919061080b565b9250508190555060018060008473ffffffffffffffffffffffffffffffffffffffff1673ffffffffffffffffffffffffffffffffffffffff1681526020019081526020016000206000828254610414919061083f565b92505081905550808273ffffffffffffffffffffffffffffffffffffffff168473ffffffffffffffffffffffffffffffffffffffff167fddf252ad1be2c89b69c2b068fc378daa952ba7f163c4a11628f55a4df523b3ef60405160405180910390a4505050565b600080fd5b600073ffffffffffffffffffffffffffffffffffffffff82169050919050565b60006104ab82610480565b9050919050565b6104bb816104a0565b81146104c657600080fd5b50565b6000813590506104d8816104b2565b92915050565b6000819050919050565b6104f1816104de565b81146104fc57600080fd5b50565b60008135905061050e816104e8565b92915050565b60008060006060848603121561052d5761052c61047b565b5b600061053b868287016104c9565b935050602061054c868287016104c9565b925050604061055d868287016104ff565b9150509250925092565b60006020828403121561057d5761057c61047b565b5b600061058b848285016104ff565b91505092915050565b61059d816104a0565b82525050565b60006020820190506105b86000830184610594565b92915050565b6000602082840312156105d4576105d361047b565b5b60006105e2848285016104c9565b91505092915050565b6105f4816104de565b82525050565b600060208201905061060f60008301846105eb565b92915050565b600082825260208201905092915050565b7f4552524f5221206f776e657220717565727920666f72206e6f6e2d657869737460008201527f616e636520746f6b656e00000000000000000000000000000000000000000000602082015250565b6000610682602a83610615565b915061068d82610626565b604082019050919050565b600060208201905081810360008301526106b181610675565b9050919050565b7f547279696e6720746f207472616e73666572206120746f6b656e20746865206160008201527f64647265737320646f65736e2774206f776e0000000000000000000000000000602082015250565b6000610714603283610615565b915061071f826106b8565b604082019050919050565b6000602082019050818103600083015261074381610707565b9050919050565b7f4552524f522120455243373231205472616e7366657220746f207a65726f206160008201527f6464726573730000000000000000000000000000000000000000000000000000602082015250565b60006107a6602683610615565b91506107b18261074a565b604082019050919050565b600060208201905081810360008301526107d581610799565b9050919050565b7f4e487b7100000000000000000000000000000000000000000000000000000000600052601160045260246000fd5b6000610816826104de565b9150610821836104de565b9250828203905081811115610839576108386107dc565b5b92915050565b600061084a826104de565b9150610855836104de565b925082820190508082111561086d5761086c6107dc565b5b9291505056fea2646970667358221220025d6e7adb06bce49ac4e49a04d586dc01096fd1b8c99fc57f09f767443f9a1864736f6c63430008110033",
  "immutableReferences": {},
  "source": "//SPDX-License-Identifier: MIT\n\npragma solidity ^0.8.0;\n\ncontract ERC721 {\n\n    // mapping in solidity creates a hash table of key pair values\n    // mapping from token id to the owner\n    mapping(uint256 => address) private _tokenOwner;\n    // mapping from owner to number of owned tokens\n    mapping(address => uint256) private _ownedTokensCount;\n    // mapping from tokenId to approve addresses\n    mapping(uint256 => address) private _tokenApprovals;\n\n    event Transfer(address indexed from, address indexed to, uint256 indexed tokenId);\n\n    /// @notice Count all NFTs assigned to an owner\n    /// @dev NFTs assigned to the zero address are considered invalid, and this\n    ///  function throws for queries about the zero address.\n    /// @param _owner An address for whom to query the balance\n    /// @return The number of NFTs owned by `_owner`, possibly zero\n    function balanceOf(address _owner) public view returns (uint256){\n        require(_owner != address(0), \"ERROR! owner query for non-existance token\");\n        return _ownedTokensCount[_owner];\n    }\n\n    /// @notice Find the owner of an NFT\n    /// @dev NFTs assigned to zero address are considered invalid, and queries\n    ///  about them do throw.\n    /// @param _tokenId The identifier for an NFT\n    /// @return The address of the owner of the NFT\n    function ownerOf(uint256 _tokenId) public view returns (address){\n        address owner = _tokenOwner[_tokenId];\n        require(owner != address(0), \"ERROR! owner query for non-existance token\");\n        return owner;\n\n        \n    }\n    \n    function _exists(uint256 tokenId) internal view returns(bool){\n        // setting the address of nft owner to check the mapping of the address from the tokenOwner at the tokenId.\n        address owner = _tokenOwner[tokenId];\n        // return truthiness the address is not zero\n        return owner != address(0);\n    }\n\n    function _mint(address to, uint256 tokenId) internal virtual{\n        // requires that the address is not zero\n        require(to != address(0), \"ERC721: minting to the zero address\");\n        // requires that the token does not already exist\n        require(!_exists(tokenId), \"ERC721: token already minted\");\n        // wwe are adding a new address with a tokenId for minting\n        _tokenOwner[tokenId] = to;\n        // keeping track of each address that is minting and adding one to the count.\n        _ownedTokensCount[to] += 1;\n        // emit the Transfer event\n        emit Transfer(address(0), to, tokenId);\n\n    }\n\n    /// @notice Transfer ownership of an NFT -- THE CALLER IS RESPONSIBLE\n    ///  TO CONFIRM THAT `_to` IS CAPABLE OF RECEIVING NFTS OR ELSE\n    ///  THEY MAY BE PERMANENTLY LOST\n    /// @dev Throws unless `msg.sender` is the current owner, an authorized\n    ///  operator, or the approved address for this NFT. Throws if `_from` is\n    ///  not the current owner. Throws if `_to` is the zero address. Throws if\n    ///  `_tokenId` is not a valid NFT.\n    /// @param _from The current owner of the NFT\n    /// @param _to The new owner\n    /// @param _tokenId The NFT to transfer\n    function _transferFrom(address _from, address _to, uint256 _tokenId) internal {\n        // require (safe functionality)\n        // require the address transferring the token actually owns the token \n        require(_from == ownerOf(_tokenId), \"Trying to transfer a token the address doesn't own\");\n        // require that the address receiving a token is not a zero address\n        require(_to != address(0), \"ERROR! ERC721 Transfer to zero address\");\n        // add the tokenId to the address receiving the token\n        _tokenOwner[_tokenId] = _to;\n        // update the balance of address from\n        _ownedTokensCount[_from] -= 1;\n        // update the balance of address to\n        _ownedTokensCount[_to] += 1;\n\n        emit Transfer(_from, _to, _tokenId);\n\n    }\n\n    function transferFrom(address _from, address _to, uint256 _tokenId) public {\n        _transferFrom(_from, _to, _tokenId);\n    }\n\n\n\n\n}",
  "sourcePath": "/home/hp/RAJEEB/Rajeeb/Rajeeb_Github_Repo/NFT Web Development/NFT Marketplace/nft-marketplace-starter-kit/src/contracts/ERC721.sol",
  "compiler": {
    "name": "solc",
    "version": "0.8.17+commit.8df45f5f.Emscripten.clang"
  },
  "schemaVersion": "3.4.6",
  "updatedAt": "2022-09-13T12:21:24.018Z",
  "devdoc": {
    "kind": "dev",
    "methods": {
      "balanceOf(address)": {
        "details": "NFTs assigned to the zero address are considered invalid, and this  function throws for queries about the zero address.",
        "params": {
          "_owner": "An address for whom to query the balance"
        },
        "returns": {
          "_0": "The number of NFTs owned by `_owner`, possibly zero"
        }
      },
      "ownerOf(uint256)": {
        "details": "NFTs assigned to zero address are considered invalid, and queries  about them do throw.",
        "params": {
          "_tokenId": "The identifier for an NFT"
        },
        "returns": {
          "_0": "The address of the owner of the NFT"
        }
      }
    },
    "version": 1
  },
  "userdoc": {
    "kind": "user",
    "methods": {
      "balanceOf(address)": {
        "notice": "Count all NFTs assigned to an owner"
      },
      "ownerOf(uint256)": {
        "notice": "Find the owner of an NFT"
      }
    },
    "version": 1
  }
}