{
  "contractName": "ERC721",
  "abi": [
    {
      "inputs": [],
      "stateMutability": "nonpayable",
      "type": "constructor"
    },
    {
      "anonymous": false,
      "inputs": [
        {
          "indexed": true,
          "internalType": "address",
          "name": "_owner",
          "type": "address"
        },
        {
          "indexed": true,
          "internalType": "address",
          "name": "_approved",
          "type": "address"
        },
        {
          "indexed": true,
          "internalType": "uint256",
          "name": "_tokenId",
          "type": "uint256"
        }
      ],
      "name": "Approval",
      "type": "event"
    },
    {
      "anonymous": false,
      "inputs": [
        {
          "indexed": true,
          "internalType": "address",
          "name": "_from",
          "type": "address"
        },
        {
          "indexed": true,
          "internalType": "address",
          "name": "_to",
          "type": "address"
        },
        {
          "indexed": true,
          "internalType": "uint256",
          "name": "_tokenId",
          "type": "uint256"
        }
      ],
      "name": "Transfer",
      "type": "event"
    },
    {
      "inputs": [
        {
          "internalType": "bytes4",
          "name": "interfaceID",
          "type": "bytes4"
        }
      ],
      "name": "supportsInterface",
      "outputs": [
        {
          "internalType": "bool",
          "name": "",
          "type": "bool"
        }
      ],
      "stateMutability": "view",
      "type": "function"
    },
    {
      "inputs": [
        {
          "internalType": "address",
          "name": "_owner",
          "type": "address"
        }
      ],
      "name": "balanceOf",
      "outputs": [
        {
          "internalType": "uint256",
          "name": "",
          "type": "uint256"
        }
      ],
      "stateMutability": "view",
      "type": "function"
    },
    {
      "inputs": [
        {
          "internalType": "uint256",
          "name": "_tokenId",
          "type": "uint256"
        }
      ],
      "name": "ownerOf",
      "outputs": [
        {
          "internalType": "address",
          "name": "",
          "type": "address"
        }
      ],
      "stateMutability": "view",
      "type": "function"
    },
    {
      "inputs": [
        {
          "internalType": "address",
          "name": "_from",
          "type": "address"
        },
        {
          "internalType": "address",
          "name": "_to",
          "type": "address"
        },
        {
          "internalType": "uint256",
          "name": "_tokenId",
          "type": "uint256"
        }
      ],
      "name": "transferFrom",
      "outputs": [],
      "stateMutability": "nonpayable",
      "type": "function"
    },
    {
      "inputs": [
        {
          "internalType": "address",
          "name": "_to",
          "type": "address"
        },
        {
          "internalType": "uint256",
          "name": "_tokenId",
          "type": "uint256"
        }
      ],
      "name": "approve",
      "outputs": [],
      "stateMutability": "nonpayable",
      "type": "function"
    },
    {
      "inputs": [
        {
          "internalType": "uint256",
          "name": "_tokenId",
          "type": "uint256"
        }
      ],
      "name": "getApproved",
      "outputs": [
        {
          "internalType": "address",
          "name": "",
          "type": "address"
        }
      ],
      "stateMutability": "view",
      "type": "function"
    }
  ],
  "bytecode": "0x60806040523480156200001157600080fd5b50620000437f01ffc9a7a5cef8baa21ed3c5c0d7e23accb804b619e9333b597f47a0d84076e2620000be60201b60201c565b620000b87f23b872dd7302113369cda2901243429419bec145408fa8b352b3dd92b66c680b7f6352211e6566aa027e75ac9dbf2423197fbd9b82b9d981a3ab367d355866aa1c7f70a08231b98ef4ca268c9cc3f6b4590e4bfec28280db06bb5d45e689f2a360be1818620000be60201b60201c565b6200023e565b63ffffffff60e01b817bffffffffffffffffffffffffffffffffffffffffffffffffffffffff19160362000129576040517f08c379a000000000000000000000000000000000000000000000000000000000815260040162000120906200021c565b60405180910390fd5b6001600080837bffffffffffffffffffffffffffffffffffffffffffffffffffffffff19167bffffffffffffffffffffffffffffffffffffffffffffffffffffffff1916815260200190815260200160002060006101000a81548160ff02191690831515021790555050565b600082825260208201905092915050565b7f4552433136353a20496e76616c696420696e746572666163652072657175657360008201527f7400000000000000000000000000000000000000000000000000000000000000602082015250565b60006200020460218362000195565b91506200021182620001a6565b604082019050919050565b600060208201905081810360008301526200023781620001f5565b9050919050565b61106d806200024e6000396000f3fe608060405234801561001057600080fd5b50600436106100625760003560e01c806301ffc9a714610067578063081812fc14610097578063095ea7b3146100c757806323b872dd146100e35780636352211e146100ff57806370a082311461012f575b600080fd5b610081600480360381019061007c91906109cb565b61015f565b60405161008e9190610a13565b60405180910390f35b6100b160048036038101906100ac9190610a64565b6101c6565b6040516100be9190610ad2565b60405180910390f35b6100e160048036038101906100dc9190610b19565b610203565b005b6100fd60048036038101906100f89190610b59565b6103c9565b005b61011960048036038101906101149190610a64565b6103ec565b6040516101269190610ad2565b60405180910390f35b61014960048036038101906101449190610bac565b61049d565b6040516101569190610be8565b60405180910390f35b6000806000837bffffffffffffffffffffffffffffffffffffffffffffffffffffffff19167bffffffffffffffffffffffffffffffffffffffffffffffffffffffff1916815260200190815260200160002060009054906101000a900460ff169050919050565b60006003600083815260200190815260200160002060009054906101000a900473ffffffffffffffffffffffffffffffffffffffff169050919050565b60006001600083815260200190815260200160002060009054906101000a900473ffffffffffffffffffffffffffffffffffffffff1690508073ffffffffffffffffffffffffffffffffffffffff163373ffffffffffffffffffffffffffffffffffffffff16146102a9576040517f08c379a00000000000000000000000000000000000000000000000000000000081526004016102a090610c86565b60405180910390fd5b8073ffffffffffffffffffffffffffffffffffffffff168373ffffffffffffffffffffffffffffffffffffffff1603610317576040517f08c379a000000000000000000000000000000000000000000000000000000000815260040161030e90610cf2565b60405180910390fd5b826003600084815260200190815260200160002060006101000a81548173ffffffffffffffffffffffffffffffffffffffff021916908373ffffffffffffffffffffffffffffffffffffffff160217905550818373ffffffffffffffffffffffffffffffffffffffff168273ffffffffffffffffffffffffffffffffffffffff167f8c5be1e5ebec7d5bd14f71427d1e84f3dd0314c0f7b2291e5b200ac8c7c3b92560405160405180910390a4505050565b6103d3338261055b565b6103dc57600080fd5b6103e7838383610628565b505050565b6000806001600084815260200190815260200160002060009054906101000a900473ffffffffffffffffffffffffffffffffffffffff169050600073ffffffffffffffffffffffffffffffffffffffff168173ffffffffffffffffffffffffffffffffffffffff1603610494576040517f08c379a000000000000000000000000000000000000000000000000000000000815260040161048b90610d84565b60405180910390fd5b80915050919050565b60008073ffffffffffffffffffffffffffffffffffffffff168273ffffffffffffffffffffffffffffffffffffffff160361050d576040517f08c379a000000000000000000000000000000000000000000000000000000000815260040161050490610d84565b60405180910390fd5b610554600260008473ffffffffffffffffffffffffffffffffffffffff1673ffffffffffffffffffffffffffffffffffffffff16815260200190815260200160002061084d565b9050919050565b60006105668261085b565b6105a5576040517f08c379a000000000000000000000000000000000000000000000000000000000815260040161059c90610df0565b60405180910390fd5b60006105b0836103ec565b90508073ffffffffffffffffffffffffffffffffffffffff168473ffffffffffffffffffffffffffffffffffffffff16148061061f57508373ffffffffffffffffffffffffffffffffffffffff16610607846101c6565b73ffffffffffffffffffffffffffffffffffffffff16145b91505092915050565b610631816103ec565b73ffffffffffffffffffffffffffffffffffffffff168373ffffffffffffffffffffffffffffffffffffffff161461069e576040517f08c379a000000000000000000000000000000000000000000000000000000000815260040161069590610e82565b60405180910390fd5b600073ffffffffffffffffffffffffffffffffffffffff168273ffffffffffffffffffffffffffffffffffffffff160361070d576040517f08c379a000000000000000000000000000000000000000000000000000000000815260040161070490610f14565b60405180910390fd5b816001600083815260200190815260200160002060006101000a81548173ffffffffffffffffffffffffffffffffffffffff021916908373ffffffffffffffffffffffffffffffffffffffff1602179055506107a6600260008573ffffffffffffffffffffffffffffffffffffffff1673ffffffffffffffffffffffffffffffffffffffff1681526020019081526020016000206108cd565b6107ed600260008473ffffffffffffffffffffffffffffffffffffffff1673ffffffffffffffffffffffffffffffffffffffff1681526020019081526020016000206108f0565b808273ffffffffffffffffffffffffffffffffffffffff168473ffffffffffffffffffffffffffffffffffffffff167fddf252ad1be2c89b69c2b068fc378daa952ba7f163c4a11628f55a4df523b3ef60405160405180910390a4505050565b600081600001549050919050565b6000806001600084815260200190815260200160002060009054906101000a900473ffffffffffffffffffffffffffffffffffffffff169050600073ffffffffffffffffffffffffffffffffffffffff168173ffffffffffffffffffffffffffffffffffffffff161415915050919050565b6108e56001826000015461090f90919063ffffffff16565b816000018190555050565b60018160000160008282546109059190610f63565b9250508190555050565b600082821115610954576040517f08c379a000000000000000000000000000000000000000000000000000000000815260040161094b90610fe3565b60405180910390fd5b600082846109629190611003565b90508091505092915050565b600080fd5b60007fffffffff0000000000000000000000000000000000000000000000000000000082169050919050565b6109a881610973565b81146109b357600080fd5b50565b6000813590506109c58161099f565b92915050565b6000602082840312156109e1576109e061096e565b5b60006109ef848285016109b6565b91505092915050565b60008115159050919050565b610a0d816109f8565b82525050565b6000602082019050610a286000830184610a04565b92915050565b6000819050919050565b610a4181610a2e565b8114610a4c57600080fd5b50565b600081359050610a5e81610a38565b92915050565b600060208284031215610a7a57610a7961096e565b5b6000610a8884828501610a4f565b91505092915050565b600073ffffffffffffffffffffffffffffffffffffffff82169050919050565b6000610abc82610a91565b9050919050565b610acc81610ab1565b82525050565b6000602082019050610ae76000830184610ac3565b92915050565b610af681610ab1565b8114610b0157600080fd5b50565b600081359050610b1381610aed565b92915050565b60008060408385031215610b3057610b2f61096e565b5b6000610b3e85828601610b04565b9250506020610b4f85828601610a4f565b9150509250929050565b600080600060608486031215610b7257610b7161096e565b5b6000610b8086828701610b04565b9350506020610b9186828701610b04565b9250506040610ba286828701610a4f565b9150509250925092565b600060208284031215610bc257610bc161096e565b5b6000610bd084828501610b04565b91505092915050565b610be281610a2e565b82525050565b6000602082019050610bfd6000830184610bd9565b92915050565b600082825260208201905092915050565b7f43757272656e742063616c6c65722069736e277420746865206f776e6572206f60008201527f662074686520746f6b656e000000000000000000000000000000000000000000602082015250565b6000610c70602b83610c03565b9150610c7b82610c14565b604082019050919050565b60006020820190508181036000830152610c9f81610c63565b9050919050565b7f4552524f522120417070726f76616c20746f2063757272656e74206f776e6572600082015250565b6000610cdc602083610c03565b9150610ce782610ca6565b602082019050919050565b60006020820190508181036000830152610d0b81610ccf565b9050919050565b7f4552524f5221206f776e657220717565727920666f72206e6f6e2d657869737460008201527f616e636520746f6b656e00000000000000000000000000000000000000000000602082015250565b6000610d6e602a83610c03565b9150610d7982610d12565b604082019050919050565b60006020820190508181036000830152610d9d81610d61565b9050919050565b7f746f6b656e20646f65736e277420657869737400000000000000000000000000600082015250565b6000610dda601383610c03565b9150610de582610da4565b602082019050919050565b60006020820190508181036000830152610e0981610dcd565b9050919050565b7f547279696e6720746f207472616e73666572206120746f6b656e20746865206160008201527f64647265737320646f65736e2774206f776e0000000000000000000000000000602082015250565b6000610e6c603283610c03565b9150610e7782610e10565b604082019050919050565b60006020820190508181036000830152610e9b81610e5f565b9050919050565b7f4552524f522120455243373231205472616e7366657220746f207a65726f206160008201527f6464726573730000000000000000000000000000000000000000000000000000602082015250565b6000610efe602683610c03565b9150610f0982610ea2565b604082019050919050565b60006020820190508181036000830152610f2d81610ef1565b9050919050565b7f4e487b7100000000000000000000000000000000000000000000000000000000600052601160045260246000fd5b6000610f6e82610a2e565b9150610f7983610a2e565b9250828201905080821115610f9157610f90610f34565b5b92915050565b7f536166654d6174683a20737562737472616374696f6e206f766572666c6f7700600082015250565b6000610fcd601f83610c03565b9150610fd882610f97565b602082019050919050565b60006020820190508181036000830152610ffc81610fc0565b9050919050565b600061100e82610a2e565b915061101983610a2e565b925082820390508181111561103157611030610f34565b5b9291505056fea2646970667358221220e7c976b5af29e9e87bd406e453808785e636da0fdc57750fda9b0ed3806e4ae164736f6c63430008110033",
  "immutableReferences": {},
  "source": "//SPDX-License-Identifier: MIT\n\npragma solidity ^0.8.0;\n\nimport \"./ERC165.sol\";\nimport \"./interfaces/IERC721.sol\";\nimport \"./libraries/Counters.sol\";\n\ncontract ERC721 is ERC165, IERC721 {\n    using SafeMath for uint256;\n    using Counters for Counters.Counter;\n\n    // mapping in solidity creates a hash table of key pair values\n    // mapping from token id to the owner\n    mapping(uint256 => address) private _tokenOwner;\n    // mapping from owner to number of owned tokens\n    mapping(address => Counters.Counter) private _ownedTokensCount;\n    // mapping from tokenId to approve addresses\n    mapping(uint256 => address) private _tokenApprovals;\n\n    // event Transfer(address indexed from, address indexed to, uint256 indexed tokenId);\n    // event Approval(address indexed owner, address indexed approved, uint256 indexed tokenId);\n\n    /*\n    1. Register the interface for the ERC721 contract so that it includes the following functions: balanceOf, ownerOf, transferFrom\n    // *note: by register the interface write the constructors with the according byte conversion\n\n    2. Register the interface for the ERC721Enumerable contract so that it includes the following functions: totalSupply, tokenByIndex, tokenOfOwnerByIndex\n\n    3. Register the interface for the ERC721Metadata contract so that it includes the following functions: name and symbol functions\n\n    */\n\n    constructor(){\n        _registerInterface(bytes4(keccak256('balanceOf(address)')^keccak256('ownerOf(uint256)')^keccak256('transferFrom(address,address,uint256)')));\n    }\n\n    /// @notice Count all NFTs assigned to an owner\n    /// @dev NFTs assigned to the zero address are considered invalid, and this\n    ///  function throws for queries about the zero address.\n    /// @param _owner An address for whom to query the balance\n    /// @return The number of NFTs owned by `_owner`, possibly zero\n    function balanceOf(address _owner) public view override returns (uint256){\n        require(_owner != address(0), \"ERROR! owner query for non-existance token\");\n        return _ownedTokensCount[_owner].current();\n    }\n\n    /// @notice Find the owner of an NFT\n    /// @dev NFTs assigned to zero address are considered invalid, and queries\n    ///  about them do throw.\n    /// @param _tokenId The identifier for an NFT\n    /// @return The address of the owner of the NFT\n    function ownerOf(uint256 _tokenId) public view override returns (address){\n        address owner = _tokenOwner[_tokenId];\n        require(owner != address(0), \"ERROR! owner query for non-existance token\");\n        return owner; \n    }\n    \n    function _exists(uint256 tokenId) internal view returns(bool){\n        // setting the address of nft owner to check the mapping of the address from the tokenOwner at the tokenId.\n        address owner = _tokenOwner[tokenId];\n        // return truthiness the address is not zero\n        return owner != address(0);\n    }\n\n    function _mint(address to, uint256 tokenId) internal virtual{\n        // requires that the address is not zero\n        require(to != address(0), \"ERC721: minting to the zero address\");\n        // requires that the token does not already exist\n        require(!_exists(tokenId), \"ERC721: token already minted\");\n        // wwe are adding a new address with a tokenId for minting\n        _tokenOwner[tokenId] = to;\n        // keeping track of each address that is minting and adding one to the count.\n        _ownedTokensCount[to].increment();\n        // emit the Transfer event\n        emit Transfer(address(0), to, tokenId);\n\n    }\n\n    /// @notice Transfer ownership of an NFT -- THE CALLER IS RESPONSIBLE\n    ///  TO CONFIRM THAT `_to` IS CAPABLE OF RECEIVING NFTS OR ELSE\n    ///  THEY MAY BE PERMANENTLY LOST\n    /// @dev Throws unless `msg.sender` is the current owner, an authorized\n    ///  operator, or the approved address for this NFT. Throws if `_from` is\n    ///  not the current owner. Throws if `_to` is the zero address. Throws if\n    ///  `_tokenId` is not a valid NFT.\n    /// @param _from The current owner of the NFT\n    /// @param _to The new owner\n    /// @param _tokenId The NFT to transfer\n    function _transferFrom(address _from, address _to, uint256 _tokenId) internal {\n        // require (safe functionality)\n        // require the address transferring the token actually owns the token \n        require(_from == ownerOf(_tokenId), \"Trying to transfer a token the address doesn't own\");\n        // require that the address receiving a token is not a zero address\n        require(_to != address(0), \"ERROR! ERC721 Transfer to zero address\");\n        // add the tokenId to the address receiving the token\n        _tokenOwner[_tokenId] = _to;\n        // update the balance of address from\n        _ownedTokensCount[_from].decrement();\n        // update the balance of address to\n        _ownedTokensCount[_to].increment();\n\n        emit Transfer(_from, _to, _tokenId);\n\n    }\n\n    function transferFrom(address _from, address _to, uint256 _tokenId) public override {\n        require(isApprovedOrOwner(msg.sender, _tokenId));\n        _transferFrom(_from, _to, _tokenId);\n    }\n\n    // require that the person approving is the owner\n    // require that we can't approve sending tokens of owner to the owner (current caller)\n    // we are approving an address to a tokenId, update the map of approval addresses\n    // emit event Approval\n    function approve(address _to, uint256 _tokenId) public {\n        address owner = _tokenOwner[_tokenId];\n        require(msg.sender == owner, \"Current caller isn't the owner of the token\");\n        require(_to != owner, \"ERROR! Approval to current owner\");\n        _tokenApprovals[_tokenId] = _to;\n        emit Approval(owner, _to, _tokenId);\n\n    }\n\n    function isApprovedOrOwner(address spender, uint256 _tokenId) internal view returns(bool){\n        require(_exists(_tokenId), \"token doesn't exist\");\n        address owner = ownerOf(_tokenId);\n        return (spender == owner || getApproved(_tokenId) == spender);\n\n    }\n\n    function getApproved(uint256 _tokenId) public view returns(address){\n        return _tokenApprovals[_tokenId];\n    }\n\n\n\n\n}",
  "sourcePath": "/home/hp/RAJEEB/Rajeeb/Rajeeb_Github_Repo/NFT Web Development/FINAL NFT MARKETPLACE/nft-marketplace-starter-kit/src/contracts/ERC721.sol",
  "compiler": {
    "name": "solc",
    "version": "0.8.17+commit.8df45f5f.Emscripten.clang"
  },
  "schemaVersion": "3.4.6",
  "updatedAt": "2022-09-22T12:07:47.151Z",
  "devdoc": {
    "kind": "dev",
    "methods": {
      "balanceOf(address)": {
        "details": "NFTs assigned to the zero address are considered invalid, and this  function throws for queries about the zero address.",
        "params": {
          "_owner": "An address for whom to query the balance"
        },
        "returns": {
          "_0": "The number of NFTs owned by `_owner`, possibly zero"
        }
      },
      "ownerOf(uint256)": {
        "details": "NFTs assigned to zero address are considered invalid, and queries  about them do throw.",
        "params": {
          "_tokenId": "The identifier for an NFT"
        },
        "returns": {
          "_0": "The address of the owner of the NFT"
        }
      },
      "supportsInterface(bytes4)": {
        "details": "Interface identification is specified in ERC-165. This function  uses less than 30,000 gas.",
        "params": {
          "interfaceID": "The interface identifier, as specified in ERC-165"
        },
        "returns": {
          "_0": "`true` if the contract implements `interfaceID` and  `interfaceID` is not 0xffffffff, `false` otherwise"
        }
      },
      "transferFrom(address,address,uint256)": {
        "details": "Throws unless `msg.sender` is the current owner, an authorized  operator, or the approved address for this NFT. Throws if `_from` is  not the current owner. Throws if `_to` is the zero address. Throws if  `_tokenId` is not a valid NFT.",
        "params": {
          "_from": "The current owner of the NFT",
          "_to": "The new owner",
          "_tokenId": "The NFT to transfer"
        }
      }
    },
    "version": 1
  },
  "userdoc": {
    "kind": "user",
    "methods": {
      "balanceOf(address)": {
        "notice": "Count all NFTs assigned to an owner"
      },
      "ownerOf(uint256)": {
        "notice": "Find the owner of an NFT"
      },
      "supportsInterface(bytes4)": {
        "notice": "Query if a contract implements an interface"
      },
      "transferFrom(address,address,uint256)": {
        "notice": "Transfer ownership of an NFT -- THE CALLER IS RESPONSIBLE  TO CONFIRM THAT `_to` IS CAPABLE OF RECEIVING NFTS OR ELSE  THEY MAY BE PERMANENTLY LOST"
      }
    },
    "version": 1
  }
}