{
  "contractName": "KryptoBirdz",
  "abi": [
    {
      "inputs": [],
      "stateMutability": "nonpayable",
      "type": "constructor"
    },
    {
      "anonymous": false,
      "inputs": [
        {
          "indexed": true,
          "internalType": "address",
          "name": "from",
          "type": "address"
        },
        {
          "indexed": true,
          "internalType": "address",
          "name": "to",
          "type": "address"
        },
        {
          "indexed": true,
          "internalType": "uint256",
          "name": "tokenId",
          "type": "uint256"
        }
      ],
      "name": "Transfer",
      "type": "event"
    },
    {
      "inputs": [
        {
          "internalType": "address",
          "name": "_owner",
          "type": "address"
        }
      ],
      "name": "balanceOf",
      "outputs": [
        {
          "internalType": "uint256",
          "name": "",
          "type": "uint256"
        }
      ],
      "stateMutability": "view",
      "type": "function",
      "constant": true
    },
    {
      "inputs": [
        {
          "internalType": "uint256",
          "name": "",
          "type": "uint256"
        }
      ],
      "name": "kryptoBirdz",
      "outputs": [
        {
          "internalType": "string",
          "name": "",
          "type": "string"
        }
      ],
      "stateMutability": "view",
      "type": "function",
      "constant": true
    },
    {
      "inputs": [],
      "name": "name",
      "outputs": [
        {
          "internalType": "string",
          "name": "",
          "type": "string"
        }
      ],
      "stateMutability": "view",
      "type": "function",
      "constant": true
    },
    {
      "inputs": [
        {
          "internalType": "uint256",
          "name": "_tokenId",
          "type": "uint256"
        }
      ],
      "name": "ownerOf",
      "outputs": [
        {
          "internalType": "address",
          "name": "",
          "type": "address"
        }
      ],
      "stateMutability": "view",
      "type": "function",
      "constant": true
    },
    {
      "inputs": [],
      "name": "symbol",
      "outputs": [
        {
          "internalType": "string",
          "name": "",
          "type": "string"
        }
      ],
      "stateMutability": "view",
      "type": "function",
      "constant": true
    },
    {
      "inputs": [
        {
          "internalType": "uint256",
          "name": "_index",
          "type": "uint256"
        }
      ],
      "name": "tokenByIndex",
      "outputs": [
        {
          "internalType": "uint256",
          "name": "",
          "type": "uint256"
        }
      ],
      "stateMutability": "view",
      "type": "function",
      "constant": true
    },
    {
      "inputs": [
        {
          "internalType": "address",
          "name": "_owner",
          "type": "address"
        },
        {
          "internalType": "uint256",
          "name": "_index",
          "type": "uint256"
        }
      ],
      "name": "tokenOfOwnerByIndex",
      "outputs": [
        {
          "internalType": "uint256",
          "name": "",
          "type": "uint256"
        }
      ],
      "stateMutability": "view",
      "type": "function",
      "constant": true
    },
    {
      "inputs": [],
      "name": "totalSupply",
      "outputs": [
        {
          "internalType": "uint256",
          "name": "",
          "type": "uint256"
        }
      ],
      "stateMutability": "view",
      "type": "function",
      "constant": true
    },
    {
      "inputs": [
        {
          "internalType": "string",
          "name": "_kryptoBirdz",
          "type": "string"
        }
      ],
      "name": "mint",
      "outputs": [],
      "stateMutability": "nonpayable",
      "type": "function"
    }
  ],
  "bytecode": "0x60806040523480156200001157600080fd5b506040518060400160405280600b81526020017f4b727970746f426972647a0000000000000000000000000000000000000000008152506040518060400160405280600681526020017f4b424952445a00000000000000000000000000000000000000000000000000008152508181816000908162000091919062000328565b508060019081620000a3919062000328565b50505050506200040f565b600081519050919050565b7f4e487b7100000000000000000000000000000000000000000000000000000000600052604160045260246000fd5b7f4e487b7100000000000000000000000000000000000000000000000000000000600052602260045260246000fd5b600060028204905060018216806200013057607f821691505b602082108103620001465762000145620000e8565b5b50919050565b60008190508160005260206000209050919050565b60006020601f8301049050919050565b600082821b905092915050565b600060088302620001b07fffffffffffffffffffffffffffffffffffffffffffffffffffffffffffffffff8262000171565b620001bc868362000171565b95508019841693508086168417925050509392505050565b6000819050919050565b6000819050919050565b60006200020962000203620001fd84620001d4565b620001de565b620001d4565b9050919050565b6000819050919050565b6200022583620001e8565b6200023d620002348262000210565b8484546200017e565b825550505050565b600090565b6200025462000245565b620002618184846200021a565b505050565b5b8181101562000289576200027d6000826200024a565b60018101905062000267565b5050565b601f821115620002d857620002a2816200014c565b620002ad8462000161565b81016020851015620002bd578190505b620002d5620002cc8562000161565b83018262000266565b50505b505050565b600082821c905092915050565b6000620002fd60001984600802620002dd565b1980831691505092915050565b6000620003188383620002ea565b9150826002028217905092915050565b6200033382620000ae565b67ffffffffffffffff8111156200034f576200034e620000b9565b5b6200035b825462000117565b620003688282856200028d565b600060209050601f831160018114620003a057600084156200038b578287015190505b6200039785826200030a565b86555062000407565b601f198416620003b0866200014c565b60005b82811015620003da57848901518255600182019150602085019450602081019050620003b3565b86831015620003fa5784890151620003f6601f891682620002ea565b8355505b6001600288020188555050505b505050505050565b611284806200041f6000396000f3fe608060405234801561001057600080fd5b50600436106100935760003560e01c80636352211e116100665780636352211e1461013457806370a082311461016457806393ab6e561461019457806395d89b41146101c4578063d85d3d27146101e257610093565b806306fdde031461009857806318160ddd146100b65780632f745c59146100d45780634f6ccce714610104575b600080fd5b6100a06101fe565b6040516100ad9190610954565b60405180910390f35b6100be610290565b6040516100cb919061098f565b60405180910390f35b6100ee60048036038101906100e99190610a48565b61029d565b6040516100fb919061098f565b60405180910390f35b61011e60048036038101906101199190610a88565b6102a5565b60405161012b919061098f565b60405180910390f35b61014e60048036038101906101499190610a88565b6102ac565b60405161015b9190610ac4565b60405180910390f35b61017e60048036038101906101799190610adf565b61035d565b60405161018b919061098f565b60405180910390f35b6101ae60048036038101906101a99190610a88565b610414565b6040516101bb9190610954565b60405180910390f35b6101cc6104c0565b6040516101d99190610954565b60405180910390f35b6101fc60048036038101906101f79190610c41565b610552565b005b60606000805461020d90610cb9565b80601f016020809104026020016040519081016040528092919081815260200182805461023990610cb9565b80156102865780601f1061025b57610100808354040283529160200191610286565b820191906000526020600020905b81548152906001019060200180831161026957829003601f168201915b5050505050905090565b6000600480549050905090565b600092915050565b6000919050565b6000806002600084815260200190815260200160002060009054906101000a900473ffffffffffffffffffffffffffffffffffffffff169050600073ffffffffffffffffffffffffffffffffffffffff168173ffffffffffffffffffffffffffffffffffffffff1603610354576040517f08c379a000000000000000000000000000000000000000000000000000000000815260040161034b90610d5c565b60405180910390fd5b80915050919050565b60008073ffffffffffffffffffffffffffffffffffffffff168273ffffffffffffffffffffffffffffffffffffffff16036103cd576040517f08c379a00000000000000000000000000000000000000000000000000000000081526004016103c490610d5c565b60405180910390fd5b600360008373ffffffffffffffffffffffffffffffffffffffff1673ffffffffffffffffffffffffffffffffffffffff168152602001908152602001600020549050919050565b6008818154811061042457600080fd5b90600052602060002001600091509050805461043f90610cb9565b80601f016020809104026020016040519081016040528092919081815260200182805461046b90610cb9565b80156104b85780601f1061048d576101008083540402835291602001916104b8565b820191906000526020600020905b81548152906001019060200180831161049b57829003601f168201915b505050505081565b6060600180546104cf90610cb9565b80601f01602080910402602001604051908101604052809291908181526020018280546104fb90610cb9565b80156105485780601f1061051d57610100808354040283529160200191610548565b820191906000526020600020905b81548152906001019060200180831161052b57829003601f168201915b5050505050905090565b6009816040516105629190610db8565b908152602001604051809103902060009054906101000a900460ff16156105be576040517f08c379a00000000000000000000000000000000000000000000000000000000081526004016105b590610e1b565b60405180910390fd5b6008819080600181540180825580915050600190039060005260206000200160009091909190915090816105f29190610fe7565b506000600160088054905061060791906110e8565b9050610613338261064e565b60016009836040516106259190610db8565b908152602001604051809103902060006101000a81548160ff0219169083151502179055505050565b6106588282610665565b61066181610826565b5050565b600073ffffffffffffffffffffffffffffffffffffffff168273ffffffffffffffffffffffffffffffffffffffff16036106d4576040517f08c379a00000000000000000000000000000000000000000000000000000000081526004016106cb9061118e565b60405180910390fd5b6106dd81610852565b1561071d576040517f08c379a0000000000000000000000000000000000000000000000000000000008152600401610714906111fa565b60405180910390fd5b816002600083815260200190815260200160002060006101000a81548173ffffffffffffffffffffffffffffffffffffffff021916908373ffffffffffffffffffffffffffffffffffffffff1602179055506001600360008473ffffffffffffffffffffffffffffffffffffffff1673ffffffffffffffffffffffffffffffffffffffff16815260200190815260200160002060008282546107bf919061121a565b92505081905550808273ffffffffffffffffffffffffffffffffffffffff16600073ffffffffffffffffffffffffffffffffffffffff167fddf252ad1be2c89b69c2b068fc378daa952ba7f163c4a11628f55a4df523b3ef60405160405180910390a45050565b600481908060018154018082558091505060019003906000526020600020016000909190919091505550565b6000806002600084815260200190815260200160002060009054906101000a900473ffffffffffffffffffffffffffffffffffffffff169050600073ffffffffffffffffffffffffffffffffffffffff168173ffffffffffffffffffffffffffffffffffffffff161415915050919050565b600081519050919050565b600082825260208201905092915050565b60005b838110156108fe5780820151818401526020810190506108e3565b60008484015250505050565b6000601f19601f8301169050919050565b6000610926826108c4565b61093081856108cf565b93506109408185602086016108e0565b6109498161090a565b840191505092915050565b6000602082019050818103600083015261096e818461091b565b905092915050565b6000819050919050565b61098981610976565b82525050565b60006020820190506109a46000830184610980565b92915050565b6000604051905090565b600080fd5b600080fd5b600073ffffffffffffffffffffffffffffffffffffffff82169050919050565b60006109e9826109be565b9050919050565b6109f9816109de565b8114610a0457600080fd5b50565b600081359050610a16816109f0565b92915050565b610a2581610976565b8114610a3057600080fd5b50565b600081359050610a4281610a1c565b92915050565b60008060408385031215610a5f57610a5e6109b4565b5b6000610a6d85828601610a07565b9250506020610a7e85828601610a33565b9150509250929050565b600060208284031215610a9e57610a9d6109b4565b5b6000610aac84828501610a33565b91505092915050565b610abe816109de565b82525050565b6000602082019050610ad96000830184610ab5565b92915050565b600060208284031215610af557610af46109b4565b5b6000610b0384828501610a07565b91505092915050565b600080fd5b600080fd5b7f4e487b7100000000000000000000000000000000000000000000000000000000600052604160045260246000fd5b610b4e8261090a565b810181811067ffffffffffffffff82111715610b6d57610b6c610b16565b5b80604052505050565b6000610b806109aa565b9050610b8c8282610b45565b919050565b600067ffffffffffffffff821115610bac57610bab610b16565b5b610bb58261090a565b9050602081019050919050565b82818337600083830152505050565b6000610be4610bdf84610b91565b610b76565b905082815260208101848484011115610c0057610bff610b11565b5b610c0b848285610bc2565b509392505050565b600082601f830112610c2857610c27610b0c565b5b8135610c38848260208601610bd1565b91505092915050565b600060208284031215610c5757610c566109b4565b5b600082013567ffffffffffffffff811115610c7557610c746109b9565b5b610c8184828501610c13565b91505092915050565b7f4e487b7100000000000000000000000000000000000000000000000000000000600052602260045260246000fd5b60006002820490506001821680610cd157607f821691505b602082108103610ce457610ce3610c8a565b5b50919050565b7f4552524f5221206f776e657220717565727920666f72206e6f6e2d657869737460008201527f616e636520746f6b656e00000000000000000000000000000000000000000000602082015250565b6000610d46602a836108cf565b9150610d5182610cea565b604082019050919050565b60006020820190508181036000830152610d7581610d39565b9050919050565b600081905092915050565b6000610d92826108c4565b610d9c8185610d7c565b9350610dac8185602086016108e0565b80840191505092915050565b6000610dc48284610d87565b915081905092915050565b7f4552524f5221206b727970746f4269726420616c726561647920657869737473600082015250565b6000610e056020836108cf565b9150610e1082610dcf565b602082019050919050565b60006020820190508181036000830152610e3481610df8565b9050919050565b60008190508160005260206000209050919050565b60006020601f8301049050919050565b600082821b905092915050565b600060088302610e9d7fffffffffffffffffffffffffffffffffffffffffffffffffffffffffffffffff82610e60565b610ea78683610e60565b95508019841693508086168417925050509392505050565b6000819050919050565b6000610ee4610edf610eda84610976565b610ebf565b610976565b9050919050565b6000819050919050565b610efe83610ec9565b610f12610f0a82610eeb565b848454610e6d565b825550505050565b600090565b610f27610f1a565b610f32818484610ef5565b505050565b5b81811015610f5657610f4b600082610f1f565b600181019050610f38565b5050565b601f821115610f9b57610f6c81610e3b565b610f7584610e50565b81016020851015610f84578190505b610f98610f9085610e50565b830182610f37565b50505b505050565b600082821c905092915050565b6000610fbe60001984600802610fa0565b1980831691505092915050565b6000610fd78383610fad565b9150826002028217905092915050565b610ff0826108c4565b67ffffffffffffffff81111561100957611008610b16565b5b6110138254610cb9565b61101e828285610f5a565b600060209050601f831160018114611051576000841561103f578287015190505b6110498582610fcb565b8655506110b1565b601f19841661105f86610e3b565b60005b8281101561108757848901518255600182019150602085019450602081019050611062565b868310156110a457848901516110a0601f891682610fad565b8355505b6001600288020188555050505b505050505050565b7f4e487b7100000000000000000000000000000000000000000000000000000000600052601160045260246000fd5b60006110f382610976565b91506110fe83610976565b9250828203905081811115611116576111156110b9565b5b92915050565b7f4552433732313a206d696e74696e6720746f20746865207a65726f206164647260008201527f6573730000000000000000000000000000000000000000000000000000000000602082015250565b60006111786023836108cf565b91506111838261111c565b604082019050919050565b600060208201905081810360008301526111a78161116b565b9050919050565b7f4552433732313a20746f6b656e20616c7265616479206d696e74656400000000600082015250565b60006111e4601c836108cf565b91506111ef826111ae565b602082019050919050565b60006020820190508181036000830152611213816111d7565b9050919050565b600061122582610976565b915061123083610976565b9250828201905080821115611248576112476110b9565b5b9291505056fea2646970667358221220edd05904559fa7225bed2c8a0c9fac505be3a345e32e7ec51e637c2534b5753064736f6c63430008110033",
  "immutableReferences": {},
  "source": "//SPDX-License-Identifier: MIT\n\npragma solidity ^0.8.0;\n\nimport './ERC721Connector.sol';\n\ncontract KryptoBirdz is ERC721Connector {\n\n    // array to store nfts\n    string[] public kryptoBirdz;\n\n    mapping(string => bool) _kryptoBirdzExists;\n\n    constructor() ERC721Connector(\"KryptoBirdz\", \"KBIRDZ\") {\n\n    }\n\n    function mint(string memory _kryptoBirdz) public {\n        require(!_kryptoBirdzExists[_kryptoBirdz], \"ERROR! kryptoBird already exists\");\n        // uint256 _id = kryptoBirdz.push(_kryptoBirdz); // this is deprecated \n        kryptoBirdz.push(_kryptoBirdz);\n        uint256 _id = kryptoBirdz.length - 1;\n        // (.push no longer returns the length but a reference to an added element)\n        _mint(msg.sender, _id);\n        _kryptoBirdzExists[_kryptoBirdz] = true;\n    }\n\n    \n\n}",
  "sourcePath": "/home/hp/RAJEEB/Rajeeb/Rajeeb_Github_Repo/NFT Web Development/NFT Marketplace/nft-marketplace-starter-kit/src/contracts/KryptoBirdz.sol",
  "compiler": {
    "name": "solc",
    "version": "0.8.17+commit.8df45f5f.Emscripten.clang"
  },
  "schemaVersion": "3.4.6",
  "updatedAt": "2022-09-10T11:01:38.336Z",
  "networkType": "ethereum",
  "devdoc": {
    "kind": "dev",
    "methods": {
      "balanceOf(address)": {
        "details": "NFTs assigned to the zero address are considered invalid, and this  function throws for queries about the zero address.",
        "params": {
          "_owner": "An address for whom to query the balance"
        },
        "returns": {
          "_0": "The number of NFTs owned by `_owner`, possibly zero"
        }
      },
      "ownerOf(uint256)": {
        "details": "NFTs assigned to zero address are considered invalid, and queries  about them do throw.",
        "params": {
          "_tokenId": "The identifier for an NFT"
        },
        "returns": {
          "_0": "The address of the owner of the NFT"
        }
      },
      "tokenByIndex(uint256)": {
        "details": "Throws if `_index` >= `totalSupply()`.",
        "params": {
          "_index": "A counter less than `totalSupply()`"
        },
        "returns": {
          "_0": "The token identifier for the `_index`th NFT,  (sort order not specified)"
        }
      },
      "tokenOfOwnerByIndex(address,uint256)": {
        "details": "Throws if `_index` >= `balanceOf(_owner)` or if  `_owner` is the zero address, representing invalid NFTs.",
        "params": {
          "_index": "A counter less than `balanceOf(_owner)`",
          "_owner": "An address where we are interested in NFTs owned by them"
        },
        "returns": {
          "_0": "The token identifier for the `_index`th NFT assigned to `_owner`,   (sort order not specified)"
        }
      },
      "totalSupply()": {
        "returns": {
          "_0": "A count of valid NFTs tracked by this contract, where each one of  them has an assigned and queryable owner not equal to the zero address"
        }
      }
    },
    "version": 1
  },
  "userdoc": {
    "kind": "user",
    "methods": {
      "balanceOf(address)": {
        "notice": "Count all NFTs assigned to an owner"
      },
      "ownerOf(uint256)": {
        "notice": "Find the owner of an NFT"
      },
      "tokenByIndex(uint256)": {
        "notice": "Enumerate valid NFTs"
      },
      "tokenOfOwnerByIndex(address,uint256)": {
        "notice": "Enumerate NFTs assigned to an owner"
      },
      "totalSupply()": {
        "notice": "Count NFTs tracked by this contract"
      }
    },
    "version": 1
  }
}